{
  "_format": "hh-sol-artifact-1",
  "contractName": "FairSale",
  "sourceName": "contracts/sales/FairSale.sol",
  "abi": [
    {
      "inputs": [],
      "stateMutability": "nonpayable",
      "type": "constructor"
    },
    {
      "anonymous": false,
      "inputs": [
        {
          "indexed": true,
          "internalType": "uint64",
          "name": "ownerId",
          "type": "uint64"
        },
        {
          "indexed": false,
          "internalType": "uint96",
          "name": "orderTokenOut",
          "type": "uint96"
        },
        {
          "indexed": false,
          "internalType": "uint96",
          "name": "orderTokenIn",
          "type": "uint96"
        }
      ],
      "name": "CancellationOrder",
      "type": "event"
    },
    {
      "anonymous": false,
      "inputs": [
        {
          "indexed": true,
          "internalType": "uint64",
          "name": "ownerId",
          "type": "uint64"
        },
        {
          "indexed": false,
          "internalType": "uint96",
          "name": "orderTokenOut",
          "type": "uint96"
        },
        {
          "indexed": false,
          "internalType": "uint96",
          "name": "orderTokenIn",
          "type": "uint96"
        }
      ],
      "name": "ClaimedFromOrder",
      "type": "event"
    },
    {
      "anonymous": false,
      "inputs": [
        {
          "indexed": true,
          "internalType": "contract IERC20",
          "name": "_tokenIn",
          "type": "address"
        },
        {
          "indexed": true,
          "internalType": "contract IERC20",
          "name": "_tokenOut",
          "type": "address"
        },
        {
          "indexed": false,
          "internalType": "uint256",
          "name": "orderCancellationEndDate",
          "type": "uint256"
        },
        {
          "indexed": false,
          "internalType": "uint256",
          "name": "endDate",
          "type": "uint256"
        },
        {
          "indexed": false,
          "internalType": "uint96",
          "name": "_totalTokenOutAmount",
          "type": "uint96"
        },
        {
          "indexed": false,
          "internalType": "uint96",
          "name": "_minBidAmountToReceive",
          "type": "uint96"
        },
        {
          "indexed": false,
          "internalType": "uint256",
          "name": "minimumBiddingAmountPerOrder",
          "type": "uint256"
        },
        {
          "indexed": false,
          "internalType": "uint256",
          "name": "minSellThreshold",
          "type": "uint256"
        }
      ],
      "name": "InitializedSale",
      "type": "event"
    },
    {
      "anonymous": false,
      "inputs": [
        {
          "indexed": true,
          "internalType": "uint64",
          "name": "ownerId",
          "type": "uint64"
        },
        {
          "indexed": false,
          "internalType": "uint96",
          "name": "orderTokenOut",
          "type": "uint96"
        },
        {
          "indexed": false,
          "internalType": "uint96",
          "name": "orderTokenIn",
          "type": "uint96"
        }
      ],
      "name": "NewOrder",
      "type": "event"
    },
    {
      "anonymous": false,
      "inputs": [
        {
          "indexed": true,
          "internalType": "uint64",
          "name": "ownerId",
          "type": "uint64"
        },
        {
          "indexed": true,
          "internalType": "address",
          "name": "userAddress",
          "type": "address"
        }
      ],
      "name": "NewUser",
      "type": "event"
    },
    {
      "anonymous": false,
      "inputs": [
        {
          "indexed": false,
          "internalType": "uint96",
          "name": "auctionedTokens",
          "type": "uint96"
        },
        {
          "indexed": false,
          "internalType": "uint96",
          "name": "soldBiddingTokens",
          "type": "uint96"
        },
        {
          "indexed": false,
          "internalType": "bytes32",
          "name": "clearingOrder",
          "type": "bytes32"
        }
      ],
      "name": "SaleCleared",
      "type": "event"
    },
    {
      "anonymous": false,
      "inputs": [
        {
          "indexed": true,
          "internalType": "address",
          "name": "user",
          "type": "address"
        },
        {
          "indexed": false,
          "internalType": "uint64",
          "name": "ownerId",
          "type": "uint64"
        }
      ],
      "name": "UserRegistration",
      "type": "event"
    },
    {
      "inputs": [],
      "name": "FEE_DENOMINATOR",
      "outputs": [
        {
          "internalType": "uint256",
          "name": "",
          "type": "uint256"
        }
      ],
      "stateMutability": "view",
      "type": "function"
    },
    {
      "inputs": [],
      "name": "auctionStartedDate",
      "outputs": [
        {
          "internalType": "uint256",
          "name": "",
          "type": "uint256"
        }
      ],
      "stateMutability": "view",
      "type": "function"
    },
    {
      "inputs": [
        {
          "internalType": "bytes32[]",
          "name": "_orders",
          "type": "bytes32[]"
        }
      ],
      "name": "cancelOrders",
      "outputs": [],
      "stateMutability": "nonpayable",
      "type": "function"
    },
    {
      "inputs": [
        {
          "internalType": "bytes32[]",
          "name": "_orders",
          "type": "bytes32[]"
        }
      ],
      "name": "claimFromParticipantOrder",
      "outputs": [
        {
          "internalType": "uint256",
          "name": "sumTokenOutAmount",
          "type": "uint256"
        },
        {
          "internalType": "uint256",
          "name": "sumTokenInAmount",
          "type": "uint256"
        }
      ],
      "stateMutability": "nonpayable",
      "type": "function"
    },
    {
      "inputs": [],
      "name": "clearingPriceOrder",
      "outputs": [
        {
          "internalType": "bytes32",
          "name": "",
          "type": "bytes32"
        }
      ],
      "stateMutability": "view",
      "type": "function"
    },
    {
      "inputs": [
        {
          "internalType": "bytes32",
          "name": "_order",
          "type": "bytes32"
        }
      ],
      "name": "containsOrder",
      "outputs": [
        {
          "internalType": "bool",
          "name": "",
          "type": "bool"
        }
      ],
      "stateMutability": "view",
      "type": "function"
    },
    {
      "inputs": [],
      "name": "endDate",
      "outputs": [
        {
          "internalType": "uint256",
          "name": "",
          "type": "uint256"
        }
      ],
      "stateMutability": "view",
      "type": "function"
    },
    {
      "inputs": [],
      "name": "feeNumerator",
      "outputs": [
        {
          "internalType": "uint256",
          "name": "",
          "type": "uint256"
        }
      ],
      "stateMutability": "view",
      "type": "function"
    },
    {
      "inputs": [],
      "name": "feeReceiverUserId",
      "outputs": [
        {
          "internalType": "uint64",
          "name": "",
          "type": "uint64"
        }
      ],
      "stateMutability": "view",
      "type": "function"
    },
    {
      "inputs": [],
      "name": "getSecondsRemainingInBatch",
      "outputs": [
        {
          "internalType": "uint256",
          "name": "",
          "type": "uint256"
        }
      ],
      "stateMutability": "view",
      "type": "function"
    },
    {
      "inputs": [
        {
          "internalType": "address",
          "name": "user",
          "type": "address"
        }
      ],
      "name": "getUserId",
      "outputs": [
        {
          "internalType": "uint64",
          "name": "ownerId",
          "type": "uint64"
        }
      ],
      "stateMutability": "nonpayable",
      "type": "function"
    },
    {
      "inputs": [
        {
          "internalType": "bytes",
          "name": "_data",
          "type": "bytes"
        }
      ],
      "name": "init",
      "outputs": [],
      "stateMutability": "nonpayable",
      "type": "function"
    },
    {
      "inputs": [],
      "name": "initialAuctionOrder",
      "outputs": [
        {
          "internalType": "bytes32",
          "name": "",
          "type": "bytes32"
        }
      ],
      "stateMutability": "view",
      "type": "function"
    },
    {
      "inputs": [],
      "name": "interimOrder",
      "outputs": [
        {
          "internalType": "bytes32",
          "name": "",
          "type": "bytes32"
        }
      ],
      "stateMutability": "view",
      "type": "function"
    },
    {
      "inputs": [],
      "name": "interimSumBidAmount",
      "outputs": [
        {
          "internalType": "uint256",
          "name": "",
          "type": "uint256"
        }
      ],
      "stateMutability": "view",
      "type": "function"
    },
    {
      "inputs": [],
      "name": "isAtomicClosureAllowed",
      "outputs": [
        {
          "internalType": "bool",
          "name": "",
          "type": "bool"
        }
      ],
      "stateMutability": "view",
      "type": "function"
    },
    {
      "inputs": [],
      "name": "minSellThreshold",
      "outputs": [
        {
          "internalType": "uint256",
          "name": "",
          "type": "uint256"
        }
      ],
      "stateMutability": "view",
      "type": "function"
    },
    {
      "inputs": [],
      "name": "minSellThresholdNotReached",
      "outputs": [
        {
          "internalType": "bool",
          "name": "",
          "type": "bool"
        }
      ],
      "stateMutability": "view",
      "type": "function"
    },
    {
      "inputs": [],
      "name": "minimumBiddingAmountPerOrder",
      "outputs": [
        {
          "internalType": "uint256",
          "name": "",
          "type": "uint256"
        }
      ],
      "stateMutability": "view",
      "type": "function"
    },
    {
      "inputs": [],
      "name": "numUsers",
      "outputs": [
        {
          "internalType": "uint64",
          "name": "",
          "type": "uint64"
        }
      ],
      "stateMutability": "view",
      "type": "function"
    },
    {
      "inputs": [],
      "name": "orderCancellationEndDate",
      "outputs": [
        {
          "internalType": "uint256",
          "name": "",
          "type": "uint256"
        }
      ],
      "stateMutability": "view",
      "type": "function"
    },
    {
      "inputs": [
        {
          "internalType": "uint96[]",
          "name": "_ordersTokenOut",
          "type": "uint96[]"
        },
        {
          "internalType": "uint96[]",
          "name": "_ordersTokenIn",
          "type": "uint96[]"
        },
        {
          "internalType": "bytes32[]",
          "name": "_prevOrders",
          "type": "bytes32[]"
        }
      ],
      "name": "placeOrders",
      "outputs": [
        {
          "internalType": "uint64",
          "name": "ownerId",
          "type": "uint64"
        }
      ],
      "stateMutability": "nonpayable",
      "type": "function"
    },
    {
      "inputs": [
        {
          "internalType": "uint256",
          "name": "iterationSteps",
          "type": "uint256"
        }
      ],
      "name": "precalculateSellAmountSum",
      "outputs": [],
      "stateMutability": "nonpayable",
      "type": "function"
    },
    {
      "inputs": [
        {
          "internalType": "address",
          "name": "user",
          "type": "address"
        }
      ],
      "name": "registerUser",
      "outputs": [
        {
          "internalType": "uint64",
          "name": "ownerId",
          "type": "uint64"
        }
      ],
      "stateMutability": "nonpayable",
      "type": "function"
    },
    {
      "inputs": [],
      "name": "settleAuction",
      "outputs": [
        {
          "internalType": "bytes32",
          "name": "clearingOrder",
          "type": "bytes32"
        }
      ],
      "stateMutability": "nonpayable",
      "type": "function"
    },
    {
      "inputs": [
        {
          "internalType": "uint96[]",
          "name": "_ordersTokenOut",
          "type": "uint96[]"
        },
        {
          "internalType": "uint96[]",
          "name": "_ordersTokenIn",
          "type": "uint96[]"
        },
        {
          "internalType": "bytes32[]",
          "name": "_prevOrder",
          "type": "bytes32[]"
        }
      ],
      "name": "settleAuctionAtomically",
      "outputs": [],
      "stateMutability": "nonpayable",
      "type": "function"
    },
    {
      "inputs": [],
      "name": "templateName",
      "outputs": [
        {
          "internalType": "string",
          "name": "",
          "type": "string"
        }
      ],
      "stateMutability": "view",
      "type": "function"
    },
    {
      "inputs": [],
      "name": "tokenIn",
      "outputs": [
        {
          "internalType": "contract IERC20",
          "name": "",
          "type": "address"
        }
      ],
      "stateMutability": "view",
      "type": "function"
    },
    {
      "inputs": [],
      "name": "tokenOut",
      "outputs": [
        {
          "internalType": "contract IERC20",
          "name": "",
          "type": "address"
        }
      ],
      "stateMutability": "view",
      "type": "function"
    },
    {
      "inputs": [],
      "name": "tokensForSale",
      "outputs": [
        {
          "internalType": "uint256",
          "name": "",
          "type": "uint256"
        }
      ],
      "stateMutability": "view",
      "type": "function"
    },
    {
      "inputs": [],
      "name": "volumeClearingPriceOrder",
      "outputs": [
        {
          "internalType": "uint96",
          "name": "",
          "type": "uint96"
        }
      ],
      "stateMutability": "view",
      "type": "function"
    }
  ],
  "bytecode": "0x608060405260128054600160401b600160801b0319166801000000000000000017905534801561002e57600080fd5b50612da48061003e6000396000f3fe608060405234801561001057600080fd5b50600436106101e55760003560e01c806369f30fd11161010f578063c24a0f8b116100a2578063de5f252e11610071578063de5f252e146105ae578063e6470ba314610753578063e86dea4a146108f8578063f1e2fc4f14610900576101e5565b8063c24a0f8b1461058e578063d0202d3b14610596578063d4dda12f1461059e578063d73792a9146105a6576101e5565b8063a4d0a17e116100de578063a4d0a17e14610559578063a90c8c8d14610561578063b4a41c731461057e578063b90545ee14610586576101e5565b806369f30fd1146104a85780636daf390b14610525578063757a1d281461054957806392f987be14610551576101e5565b8063257d33ff116101875780634ddf47d4116101565780634ddf47d41461037057806352b2cf4f146103de5780635cefb291146104985780635f2aee41146104a0576101e5565b8063257d33ff1461031d5780632b956ff714610325578063422e6fa01461034b578063459b72d514610368576101e5565b806317569c1d116101c357806317569c1d1461022857806319a50f49146102305780632199d5cd1461025457806321c77c961461027a576101e5565b806308da7b68146101ea57806312aef8c3146102065780631426bdd414610220575b600080fd5b6101f2610924565b604080519115158252519081900360200190f35b61020e610934565b60408051918252519081900360200190f35b61020e61093a565b61020e610940565b610238610966565b604080516001600160401b039092168252519081900360200190f35b6102386004803603602081101561026a57600080fd5b50356001600160a01b0316610975565b61031b6004803603602081101561029057600080fd5b810190602081018135600160201b8111156102aa57600080fd5b8201836020820111156102bc57600080fd5b803590602001918460208302840111600160201b831117156102dd57600080fd5b919080806020026020016040519081016040528093929190818152602001838360200280828437600092019190915250929550610a6a945050505050565b005b61020e610bfc565b6102386004803603602081101561033b57600080fd5b50356001600160a01b0316610c02565b6101f26004803603602081101561036157600080fd5b5035610c77565b6101f2610c8a565b61031b6004803603602081101561038657600080fd5b810190602081018135600160201b8111156103a057600080fd5b8201836020820111156103b257600080fd5b803590602001918460018302840111600160201b831117156103d357600080fd5b509092509050610c9a565b61047f600480360360208110156103f457600080fd5b810190602081018135600160201b81111561040e57600080fd5b82018360208201111561042057600080fd5b803590602001918460208302840111600160201b8311171561044157600080fd5b919080806020026020016040519081016040528093929190818152602001838360200280828437600092019190915250929550610d2c945050505050565b6040805192835260208301919091528051918290030190f35b61023861103f565b61020e611055565b6104b061105b565b6040805160208082528351818301528351919283929083019185019080838360005b838110156104ea5781810151838201526020016104d2565b50505050905090810190601f1680156105175780820380516001836020036101000a031916815260200191505b509250505060405180910390f35b61052d61107f565b604080516001600160a01b039092168252519081900360200190f35b61020e61108e565b61020e611094565b61020e61109a565b61031b6004803603602081101561057757600080fd5b5035611362565b61020e611519565b61020e61151f565b61020e611525565b61052d61152b565b61020e61153a565b61020e611540565b61031b600480360360608110156105c457600080fd5b810190602081018135600160201b8111156105de57600080fd5b8201836020820111156105f057600080fd5b803590602001918460208302840111600160201b8311171561061157600080fd5b9190808060200260200160405190810160405280939291908181526020018383602002808284376000920191909152509295949360208101935035915050600160201b81111561066057600080fd5b82018360208201111561067257600080fd5b803590602001918460208302840111600160201b8311171561069357600080fd5b9190808060200260200160405190810160405280939291908181526020018383602002808284376000920191909152509295949360208101935035915050600160201b8111156106e257600080fd5b8201836020820111156106f457600080fd5b803590602001918460208302840111600160201b8311171561071557600080fd5b919080806020026020016040519081016040528093929190818152602001838360200280828437600092019190915250929550611546945050505050565b6102386004803603606081101561076957600080fd5b810190602081018135600160201b81111561078357600080fd5b82018360208201111561079557600080fd5b803590602001918460208302840111600160201b831117156107b657600080fd5b9190808060200260200160405190810160405280939291908181526020018383602002808284376000920191909152509295949360208101935035915050600160201b81111561080557600080fd5b82018360208201111561081757600080fd5b803590602001918460208302840111600160201b8311171561083857600080fd5b9190808060200260200160405190810160405280939291908181526020018383602002808284376000920191909152509295949360208101935035915050600160201b81111561088757600080fd5b82018360208201111561089957600080fd5b803590602001918460208302840111600160201b831117156108ba57600080fd5b9190808060200260200160405190810160405280939291908181526020018383602002808284376000920191909152509295506116cc945050505050565b61020e611723565b610908611729565b604080516001600160601b039092168252519081900360200190f35b600b54600160601b900460ff1681565b60055481565b600d5481565b6000426004541161095357506000610963565b6004546109609042611738565b90505b90565b6012546001600160401b031681565b60125460009061099890610993906001600160401b03166001611795565b6117ef565b6012805467ffffffffffffffff19166001600160401b0392831617908190556109c5916010911684611837565b610a16576040805162461bcd60e51b815260206004820152601760248201527f5573657220616c72656164792072656769737465726564000000000000000000604482015290519081900360640190fd5b50601254604080516001600160401b03909216808352905190916001600160a01b038416917f6838f67cb358c332087b73dbe769a6c869a5f87225236c16dda5d0013a77074c9181900360200190a2919050565b6002544210610aaa5760405162461bcd60e51b8152600401808060200182810382526032815260200180612b3a6032913960400191505060405180910390fd5b6000610ab533610c02565b90506000805b8351811015610bdf576000610aed858381518110610ad557fe5b6020026020010151600e6119af90919063ffffffff16565b90508015610bd6576000806000610b16888681518110610b0957fe5b6020026020010151611a04565b925092509250866001600160401b0316836001600160401b031614610b6c5760405162461bcd60e51b8152600401808060200182810382526023815260200180612af46023913960400191505060405180910390fd5b610b7f866001600160601b038316611795565b604080516001600160601b0380861682528416602082015281519298506001600160401b038a16927fa191df51d6448f39a95184fa8c95dd9f6463fa9ea030811f3ec8d30e4f530d72929181900390910190a25050505b50600101610abb565b50600054610bf7906001600160a01b03163383611a13565b505050565b60095481565b6000610c0f601083611a65565b15610c2657610c1f601083611a8f565b9050610c72565b610c2f82610975565b9050816001600160a01b0316816001600160401b03167f969d438b19b6b5fb3c0d3c6f16867e519fcec4233799d6be29d1c00f2045ba2660405160405180910390a35b919050565b6000610c84600e83611b19565b92915050565b600b54600160681b900460ff1681565b60008060008060008060008060008a8a610120811015610cb957600080fd5b506001600160a01b03813581169a50602082013516985060408101359750606081013596506001600160601b0360808201358116965060a082013516945060c0810135935060e08101359250610100013515159050610d1f898989898989898989611b42565b5050505050505050505050565b600a546000908190610d85576040805162461bcd60e51b815260206004820152601860248201527f41756374696f6e206e6f74207965742066696e69736865640000000000000000604482015290519081900360640190fd5b60005b8351811015610e1157610db8848281518110610da057fe5b6020026020010151600e611d9d90919063ffffffff16565b610e09576040805162461bcd60e51b815260206004820152601c60248201527f6f72646572206973206e6f206c6f6e67657220636c61696d61626c6500000000604482015290519081900360640190fd5b600101610d88565b50600080610e20600a54611a04565b92509250506000610e3786600081518110610b0957fe5b5050905060005b865181101561102b576000806000610e5b8a8581518110610b0957fe5b925092509250846001600160401b0316836001600160401b031614610eb15760405162461bcd60e51b8152600401808060200182810382526023815260200180612c826023913960400191505060405180910390fd5b600b54600160601b900460ff1615610edd57610ed6886001600160601b038316611795565b9750610fd3565b600a548a8581518110610eec57fe5b60200260200101511415610f5457600b54610f2d90610f26906001600160601b03808a1691610f2091908116908c16611dc9565b90611e22565b8a90611795565b600b54909950610ed690610f4d906001600160601b038481169116611738565b8990611795565b610f7c600a548b8681518110610f6657fe5b6020026020010151611e8990919063ffffffff16565b15610fbd57610fb6610f26876001600160601b0316610f208a6001600160601b0316856001600160601b0316611dc990919063ffffffff16565b9850610fd3565b610fd0886001600160601b038316611795565b97505b604080516001600160601b0380851682528316602082015281516001600160401b038816927ff75ff0412dab9132bc6907f911ff4b016eef8911771400efa692b1868162700f928290030190a2505050600101610e3e565b50611037858583611fbe565b505050915091565b601254600160401b90046001600160401b031681565b600a5481565b604051806040016040528060088152602001674661697253616c6560c01b81525081565b6000546001600160a01b031681565b60075481565b60065481565b6004546000904281118015906110b05750600a54155b6110eb5760405162461bcd60e51b8152600401808060200182810382526028815260200180612ca56028913960400191505060405180910390fd5b5060008060006110fc600654611a04565b60085460095493965091945092509080600080865b61111c600e8561200d565b93506002600160601b031984141561113357611180565b83945061113f85611a04565b6001600160601b03918216955016925061115b90508683611795565b95506111706001600160601b03891683611dc9565b61117a8785611dc9565b10611111575b6000861180156111ab575061119e6001600160601b03891683611dc9565b6111a88785611dc9565b10155b156112565760006111d36111cc85610f206001600160601b038d1687611dc9565b8890611738565b905080831061122d5760006111e88483611738565b90506111f3816120a1565b600b80546bffffffffffffffffffffffff19166001600160601b03929092169190911790556112228883611738565b9750869b5050611250565b6112378784611738565b965061124d60008a6112488a6120a1565b6120e5565b9a505b506112bf565b866001600160601b031686111561127d57611276600089611248896120a1565b99506112bf565b611289600089896120e5565b99506112bc6112b7886001600160601b0316610f208b6001600160601b03168a611dc990919063ffffffff16565b6120a1565b90505b600a8a9055600d548610156112e257600b805460ff60601b1916600160601b1790555b6112f6816001600160601b03168a8a61211d565b604080516001600160601b038084168252881660208201528082018c905290517fc048a8fe4ec243afbbe9adbc74b4e9b9516c12bb0369fd0578d2927a961351609181900360600190a15050600060068190556009819055600881905560075550959695505050505050565b6004544281118015906113755750600a54155b6113b05760405162461bcd60e51b8152600401808060200182810382526028815260200180612ca56028913960400191505060405180910390fd5b5060006113be600654611a04565b50600854600954919350915060005b84811015611411576113e0600e8361200d565b915060006113ed83611a04565b925061140691508590506001600160601b038316611795565b9350506001016113cd565b506002600160601b031981141561146f576040805162461bcd60e51b815260206004820152601960248201527f7265616368656420656e64206f66206f72646572206c69737400000000000000604482015290519081900360640190fd5b60008061147b83611a04565b92509250506114a5816001600160601b0316866001600160601b0316611dc990919063ffffffff16565b6114b8856001600160601b038516611dc9565b1061150a576040805162461bcd60e51b815260206004820152601960248201527f746f6f206d616e79206f72646572732073756d6d656420757000000000000000604482015290519081900360640190fd5b50506008919091556009555050565b60035481565b60025481565b60045481565b6001546001600160a01b031681565b60085481565b6103e881565b6004544281118015906115595750600a54155b6115945760405162461bcd60e51b8152600401808060200182810382526028815260200180612ca56028913960400191505060405180910390fd5b50600b54600160681b900460ff166115dd5760405162461bcd60e51b8152600401808060200182810382526028815260200180612a9b6028913960400191505060405180910390fd5b825160011480156115ef575081516001145b61162a5760405162461bcd60e51b8152600401808060200182810382526027815260200180612bb46027913960400191505060405180910390fd5b600061163533610c02565b905061167661166d828660008151811061164b57fe5b60200260200101518660008151811061166057fe5b60200260200101516120e5565b60095490611e89565b6116b15760405162461bcd60e51b8152600401808060200182810382526031815260200180612ac36031913960400191505060405180910390fd5b6116bc848484612244565b506116c561109a565b5050505050565b6000600454421061170e5760405162461bcd60e51b8152600401808060200182810382526022815260200180612d4d6022913960400191505060405180910390fd5b611719848484612244565b90505b9392505050565b600c5481565b600b546001600160601b031681565b60008282111561178f576040805162461bcd60e51b815260206004820152601e60248201527f536166654d6174683a207375627472616374696f6e206f766572666c6f770000604482015290519081900360640190fd5b50900390565b60008282018381101561171c576040805162461bcd60e51b815260206004820152601b60248201527f536166654d6174683a206164646974696f6e206f766572666c6f770000000000604482015290519081900360640190fd5b6000600160401b82106118335760405162461bcd60e51b8152600401808060200182810382526026815260200180612c5c6026913960400191505060405180910390fd5b5090565b60006001600160a01b038216611894576040805162461bcd60e51b815260206004820152601a60248201527f43616e6e6f7420696e73657274207a65726f2061646472657373000000000000604482015290519081900360640190fd5b6001600160401b0383811614156118f2576040805162461bcd60e51b815260206004820152601860248201527f43616e6e6f7420696e73657274206d61782075696e7436340000000000000000604482015290519081900360640190fd5b6001600160a01b03821660009081526001850160205260409020546001600160401b031615158061194657506001600160401b0360018401166000908152602085905260409020546001600160a01b031615155b156119535750600061171c565b5060019182016001600160401b031660008181526020858152604080832080546001600160a01b0319166001600160a01b039690961695861790559382529484019094529220805467ffffffffffffffff191690921790915590565b60006119bb8383611b19565b6119c757506000610c84565b5060008181526001838101602081815260408085205487835281862080548288528388208190558752938352908520559383529390925290915590565b60c081901c91606082901c9190565b604080516001600160a01b038416602482015260448082018490528251808303909101815260649091019091526020810180516001600160e01b031663a9059cbb60e01b179052610bf79084906124b7565b6001600160a01b0316600090815260019190910160205260409020546001600160401b0316151590565b6000611a9b8383611a65565b611aec576040805162461bcd60e51b815260206004820152601b60248201527f4d7573742068617665204164647265737320746f206765742049440000000000604482015290519081900360640190fd5b506001600160a01b0316600090815260019190910160205260409020546001600160401b03166000190190565b60006001821415611b2c57506000610c84565b5060009081526020919091526040902054151590565b6000611b4d33610c02565b9050611b963330611b846103e8610f20611b74600c546103e861179590919063ffffffff16565b6001600160601b038d1690611dc9565b6001600160a01b038d16929190612568565b6000866001600160601b031611611bf4576040805162461bcd60e51b815260206004820152601a60248201527f63616e6e6f742061756374696f6e207a65726f20746f6b656e73000000000000604482015290519081900360640190fd5b6000856001600160601b031611611c3c5760405162461bcd60e51b8152600401808060200182810382526023815260200180612b176023913960400191505060405180910390fd5b60008411611c7b5760405162461bcd60e51b8152600401808060200182810382526036815260200180612c056036913960400191505060405180910390fd5b611c85600e6125c2565b42878101600455600080546001600160a01b03808e166001600160a01b03199283161790925560018054928d16929091169190911790558089016002819055600391909155611cd58288886120e5565b6006556001600160601b0387811660058190556007879055600060088190556001600955600a55600b80546dffffffffffffffffffffffffffff1916600160681b87151502179055600d8690556002546004546040805192835260208301919091528181019290925291881660608301526080820187905260a08201869052516001600160a01b038c811692908e16917fddc5ab492ca60ec0fc927fd7bb5d5a9fec0278a1caf65c8ecf5dbb30d9c1b3379160c0908290030190a35050505050505050505050565b600080611daa84846119af565b9050801561171c57600092835260019390930160205250604081205590565b600082611dd857506000610c84565b82820282848281611de557fe5b041461171c5760405162461bcd60e51b8152600401808060200182810382526021815260200180612c3b6021913960400191505060405180910390fd5b6000808211611e78576040805162461bcd60e51b815260206004820152601a60248201527f536166654d6174683a206469766973696f6e206279207a65726f000000000000604482015290519081900360640190fd5b818381611e8157fe5b049392505050565b600080600080611e9886611a04565b9250925092506000806000611eac88611a04565b91945092509050611ec96001600160601b03808416908616611dc9565b611edf6001600160601b03878116908416611dc9565b1015611ef45760019650505050505050610c84565b611f0a6001600160601b03838116908616611dc9565b611f206001600160601b03878116908416611dc9565b1115611f355760009650505050505050610c84565b826001600160401b0316866001600160401b03161415611f865760405162461bcd60e51b815260040180806020018281038252602d815260200180612ccd602d913960400191505060405180910390fd5b826001600160401b0316866001600160401b03161015611faf5760019650505050505050610c84565b50600098975050505050505050565b6000611fcb6010836125ee565b90508315611fea57600154611fea906001600160a01b03168286611a13565b821561200757600054612007906001600160a01b03168285611a13565b50505050565b60006002600160601b03198214156120565760405162461bcd60e51b8152600401808060200182810382526022815260200180612b6c6022913960400191505060405180910390fd5b6000828152602084905260409020548061171c5760405162461bcd60e51b815260040180806020018281038252602a815260200180612bdb602a913960400191505060405180910390fd5b6000600160601b82106118335760405162461bcd60e51b8152600401808060200182810382526026815260200180612a756026913960400191505060405180910390fd5b6001600160c01b031960c084901b166bffffffffffffffffffffffff60601b606084901b16016001600160601b038216019392505050565b60006121436103e8610f20600c54856001600160601b0316611dc990919063ffffffff16565b600b54909150600160601b900460ff161561217b5761217661216e6001600160601b03841683611795565b600085611fbe565b612007565b600080612189600a54611a04565b9093509150600090506121a56001600160601b03861688611738565b905060006121ca6121c36001600160601b038816610f208886611dc9565b8390611795565b905060006121f7856001600160601b0316610f20866001600160601b03168c611dc990919063ffffffff16565b905061220482828a611fbe565b61223961221e6001600160601b038916610f20898d611dc9565b601254600090600160401b90046001600160401b0316611fbe565b505050505050505050565b6000806000612254600654611a04565b9250925050600061226433610c02565b935060005b8751811015612494576122aa87828151811061228157fe5b60200260200101516001600160601b0316856001600160601b0316611dc990919063ffffffff16565b6122e2846001600160601b03168a84815181106122c357fe5b60200260200101516001600160601b0316611dc990919063ffffffff16565b1061231e5760405162461bcd60e51b8152600401808060200182810382526029815260200180612cfa6029913960400191505060405180910390fd5b60075487828151811061232d57fe5b60200260200101516001600160601b031611612382576040805162461bcd60e51b815260206004820152600f60248201526e1bdc99195c881d1bdbc81cdb585b1b608a1b604482015290519081900360640190fd5b60006123d06123ab878b858151811061239757fe5b60200260200101518b868151811061166057fe5b8884815181106123b757fe5b6020026020010151600e6126749092919063ffffffff16565b9050801561248b576124078883815181106123e757fe5b60200260200101516001600160601b03168461179590919063ffffffff16565b9250856001600160401b03167f74df79be96152afe44c2a06a37046de4d335629601e2cf1b58c5346216a5d3d38a848151811061244057fe5b60200260200101518a858151811061245457fe5b602002602001015160405180836001600160601b03168152602001826001600160601b031681526020019250505060405180910390a25b50600101612269565b506000546124ad906001600160a01b0316333084612568565b5050509392505050565b606061250c826040518060400160405280602081526020017f5361666545524332303a206c6f772d6c6576656c2063616c6c206661696c6564815250856001600160a01b03166128359092919063ffffffff16565b805190915015610bf75780806020019051602081101561252b57600080fd5b5051610bf75760405162461bcd60e51b815260040180806020018281038252602a815260200180612d23602a913960400191505060405180910390fd5b604080516001600160a01b0380861660248301528416604482015260648082018490528251808303909101815260849091019091526020810180516001600160e01b03166323b872dd60e01b1790526120079085906124b7565b60016000818152602083815260408083206002600160601b031990819055835293830190529190912055565b60006125fa8383612844565b61264b576040805162461bcd60e51b815260206004820152601b60248201527f4d757374206861766520494420746f2067657420416464726573730000000000604482015290519081900360640190fd5b506001016001600160401b0316600090815260209190915260409020546001600160a01b031690565b60008061268084611a04565b925050506001600160601b0381166126df576040805162461bcd60e51b815260206004820152601f60248201527f496e73657274696e67207a65726f206973206e6f7420737570706f7274656400604482015290519081900360640190fd5b600184148015906126f857506002600160601b03198414155b612749576040805162461bcd60e51b815260206004820152601e60248201527f496e73657274696e6720656c656d656e74206973206e6f742076616c69640000604482015290519081900360640190fd5b6127538585611b19565b1561276257600091505061171c565b6001831480159061278157506000838152600186016020526040902054155b1561279057600091505061171c565b61279a8385611e89565b6127a857600091505061171c565b5b6000838152602086905260409020546127d457600092835260018501602052604090922054916127a9565b6000835b6000818152602088905260409020549091506127f48187611e89565b6127d8576000828152602088815260408083208990558383526001808b0183528184208a905589845281842095909555908990529020559150509392505050565b6060611719848460008561286e565b6001016001600160401b0316600090815260209190915260409020546001600160a01b0316151590565b6060824710156128af5760405162461bcd60e51b8152600401808060200182810382526026815260200180612b8e6026913960400191505060405180910390fd5b6128b8856129ca565b612909576040805162461bcd60e51b815260206004820152601d60248201527f416464726573733a2063616c6c20746f206e6f6e2d636f6e7472616374000000604482015290519081900360640190fd5b60006060866001600160a01b031685876040518082805190602001908083835b602083106129485780518252601f199092019160209182019101612929565b6001836020036101000a03801982511681845116808217855250505050505090500191505060006040518083038185875af1925050503d80600081146129aa576040519150601f19603f3d011682016040523d82523d6000602084013e6129af565b606091505b50915091506129bf8282866129d0565b979650505050505050565b3b151590565b606083156129df57508161171c565b8251156129ef5782518084602001fd5b8160405162461bcd60e51b81526004018080602001828103825283818151815260200191508051906020019080838360005b83811015612a39578181015183820152602001612a21565b50505050905090810190601f168015612a665780820380516001836020036101000a031916815260200191505b509250505060405180910390fdfe53616665436173743a2076616c756520646f65736e27742066697420696e20393620626974736e6f7420616c6c6f77656420746f20736574746c652061756374696f6e2061746f6d6963616c6c7970726563616c63756c61746553656c6c416d6f756e7453756d20697320616c726561647920746f6f20616476616e6365644f6e6c792074686520757365722063616e2063616e63656c20686973206f7264657273746f6b656e732063616e6e6f742062652061756374696f6e656420666f7220667265656e6f206c6f6e67657220696e206f7264657220706c6163656d656e7420616e642063616e63656c6174696f6e207068617365547279696e6720746f20676574206e657874206f66206c61737420656c656d656e74416464726573733a20696e73756666696369656e742062616c616e636520666f722063616c6c4f6e6c79206f6e65206f726465722063616e20626520706c616365642061746f6d6963616c6c79547279696e6720746f20676574206e657874206f66206e6f6e2d6578697374656e7420656c656d656e746d696e696d756d42696464696e67416d6f756e745065724f72646572206973206e6f7420616c6c6f77656420746f206265207a65726f536166654d6174683a206d756c7469706c69636174696f6e206f766572666c6f7753616665436173743a2076616c756520646f65736e27742066697420696e20363420626974736f6e6c7920616c6c6f77656420746f20636c61696d20666f722073616d65207573657241756374696f6e206e6f7420696e20736f6c7574696f6e207375626d697373696f6e20706861736575736572206973206e6f7420616c6c6f77656420746f20706c6163652073616d65206f726465722074776963656c696d6974207072696365206e6f7420626574746572207468616e206d696d696d616c206f666665725361666545524332303a204552433230206f7065726174696f6e20646964206e6f7420737563636565646e6f206c6f6e67657220696e206f7264657220706c6163656d656e74207068617365a26469706673582212202e5a8406185013d4b79479bc5372dcc2b1abf73655421bd3961fb1bf0cc0c6ad64736f6c634300060c0033",
  "linkReferences": {},
  "deployedLinkReferences": {}
}