{
  "_format": "hh-sol-artifact-1",
  "contractName": "FairSaleTemplate",
  "sourceName": "contracts/templates/FairSaleTemplate.sol",
  "abi": [
    {
      "inputs": [
        {
          "internalType": "address",
          "name": "_WETH",
          "type": "address"
        },
        {
          "internalType": "address",
          "name": "_saleLauncher",
          "type": "address"
        },
        {
          "internalType": "uint256",
          "name": "_auctionTemplateId",
          "type": "uint256"
        }
      ],
      "stateMutability": "nonpayable",
      "type": "constructor"
    },
    {
      "anonymous": false,
      "inputs": [
        {
          "indexed": false,
          "internalType": "address",
          "name": "tokenOut",
          "type": "address"
        },
        {
          "indexed": false,
          "internalType": "address",
          "name": "tokenIn",
          "type": "address"
        },
        {
          "indexed": false,
          "internalType": "uint256",
          "name": "duration",
          "type": "uint256"
        },
        {
          "indexed": false,
          "internalType": "uint256",
          "name": "tokenOutSupply",
          "type": "uint256"
        },
        {
          "indexed": false,
          "internalType": "uint96",
          "name": "minPrice",
          "type": "uint96"
        },
        {
          "indexed": false,
          "internalType": "uint96",
          "name": "minBuyAmount",
          "type": "uint96"
        },
        {
          "indexed": false,
          "internalType": "uint256",
          "name": "minRaise",
          "type": "uint256"
        }
      ],
      "name": "TemplateInitialized",
      "type": "event"
    },
    {
      "inputs": [],
      "name": "WETH",
      "outputs": [
        {
          "internalType": "contract IWETH10",
          "name": "",
          "type": "address"
        }
      ],
      "stateMutability": "view",
      "type": "function"
    },
    {
      "inputs": [],
      "name": "auction",
      "outputs": [
        {
          "internalType": "contract IAuction",
          "name": "",
          "type": "address"
        }
      ],
      "stateMutability": "view",
      "type": "function"
    },
    {
      "inputs": [],
      "name": "auctionTemplateId",
      "outputs": [
        {
          "internalType": "uint256",
          "name": "",
          "type": "uint256"
        }
      ],
      "stateMutability": "view",
      "type": "function"
    },
    {
      "inputs": [
        {
          "internalType": "bytes",
          "name": "_data",
          "type": "bytes"
        }
      ],
      "name": "init",
      "outputs": [
        {
          "internalType": "address",
          "name": "newAuction",
          "type": "address"
        }
      ],
      "stateMutability": "nonpayable",
      "type": "function"
    },
    {
      "inputs": [],
      "name": "mesaFactory",
      "outputs": [
        {
          "internalType": "contract IMesaFactory",
          "name": "",
          "type": "address"
        }
      ],
      "stateMutability": "view",
      "type": "function"
    },
    {
      "inputs": [],
      "name": "saleLauncher",
      "outputs": [
        {
          "internalType": "contract ISaleLauncher",
          "name": "",
          "type": "address"
        }
      ],
      "stateMutability": "view",
      "type": "function"
    },
    {
      "inputs": [],
      "name": "templateName",
      "outputs": [
        {
          "internalType": "string",
          "name": "",
          "type": "string"
        }
      ],
      "stateMutability": "view",
      "type": "function"
    }
  ],
  "bytecode": "0x60806040526005805460ff1916905534801561001a57600080fd5b506040516109113803806109118339818101604052606081101561003d57600080fd5b508051602080830151604093840151600180546001600160a01b038087166001600160a01b031992831617909255600280549285169290911682179055855163c45a015560e01b81529551949592949193909263c45a01559260048083019392829003018186803b1580156100b157600080fd5b505afa1580156100c5573d6000803e3d6000fd5b505050506040513d60208110156100db57600080fd5b5051600380546001600160a01b0319166001600160a01b03909216919091179055600455506108009050806101116000396000f3fe608060405234801561001057600080fd5b506004361061007d5760003560e01c80636c2eefe11161005b5780636c2eefe1146101935780637d9f6db5146101ad578063ad5c4648146101b5578063c3a4de14146101bd5761007d565b80634ddf47d41461008257806369708c691461010e57806369f30fd114610116575b600080fd5b6100f26004803603602081101561009857600080fd5b8101906020810181356401000000008111156100b357600080fd5b8201836020820111156100c557600080fd5b803590602001918460018302840111640100000000831117156100e757600080fd5b5090925090506101c5565b604080516001600160a01b039092168252519081900360200190f35b6100f2610252565b61011e610261565b6040805160208082528351818301528351919283929083019185019080838360005b83811015610158578181015183820152602001610140565b50505050905090810190601f1680156101855780820380516001836020036101000a031916815260200191505b509250505060405180910390f35b61019b61028d565b60408051918252519081900360200190f35b6100f2610293565b6100f26102a2565b6100f26102b1565b60008060008060008060008060008a8a6101008110156101e457600080fd5b506001600160a01b0381358116995060208201358116985060408201359750606082013596506001600160601b0360808301358116965060a083013516945060c0820135935060e09091013516905061024388888888888888886102c0565b9b9a5050505050505050505050565b6002546001600160a01b031681565b6040518060400160405280601081526020016f4661697253616c6554656d706c61746560801b81525081565b60045481565b6000546001600160a01b031681565b6001546001600160a01b031681565b6003546001600160a01b031681565b60055460009060ff16156103055760405162461bcd60e51b81526004018080602001828103825260248152602001806107836024913960400191505060405180910390fd5b604080516001600160a01b03808c16602080840191909152818c1683850152606460608401819052608084018c905260a084018b90526001600160601b03891660c085015260e0840181905261010084018890526000610120808601829052865180870390910181526101408601808852600254633a31473360e21b90915261014487018e9052965192968796929591948694919092169263e8c51ccc92610164808301939192829003018186803b1580156103c057600080fd5b505afa1580156103d4573d6000803e3d6000fd5b505050506040513d60208110156103ea57600080fd5b50516005805460ff1916600117905590506104078e8830846104bb565b60025461041f908f906001600160a01b031683610618565b7ff243c2358fe9c4fb273fbfd3caa64e7f6b8c49b8100281f1a904bc13f475161f8e8e8e8e8e8e8e60405180886001600160a01b03168152602001876001600160a01b03168152602001868152602001858152602001846001600160601b03168152602001836001600160601b0316815260200182815260200197505050505050505060405180910390a1505050505098975050505050505050565b604080516001600160a01b0385811660248301528481166044830152606480830185905283518084039091018152608490920183526020820180516001600160e01b03166323b872dd60e01b17815292518251600094606094938a169392918291908083835b602083106105405780518252601f199092019160209182019101610521565b6001836020036101000a0380198251168184511680821785525050505050509050019150506000604051808303816000865af19150503d80600081146105a2576040519150601f19603f3d011682016040523d82523d6000602084013e6105a7565b606091505b50915091508180156105d55750805115806105d557508080602001905160208110156105d257600080fd5b50515b6106105760405162461bcd60e51b81526004018080602001828103825260248152602001806107a76024913960400191505060405180910390fd5b505050505050565b604080516001600160a01b038481166024830152604480830185905283518084039091018152606490920183526020820180516001600160e01b031663095ea7b360e01b178152925182516000946060949389169392918291908083835b602083106106955780518252601f199092019160209182019101610676565b6001836020036101000a0380198251168184511680821785525050505050509050019150506000604051808303816000865af19150503d80600081146106f7576040519150601f19603f3d011682016040523d82523d6000602084013e6106fc565b606091505b509150915081801561072a57508051158061072a575080806020019051602081101561072757600080fd5b50515b61077b576040805162461bcd60e51b815260206004820152601e60248201527f5472616e7366657248656c7065723a20415050524f56455f4641494c45440000604482015290519081900360640190fd5b505050505056fe4661697253616c6554656d706c6174653a20414c454144595f494e495449414c495a45445472616e7366657248656c7065723a205452414e534645525f46524f4d5f4641494c4544a2646970667358221220ee6cf3f69f3e8167bf974407d11d49aaad2298ce0e6a874fea45696a30d775c564736f6c634300060c0033",
  "linkReferences": {},
  "deployedLinkReferences": {}
}