{
  "_format": "hh-sol-artifact-1",
  "contractName": "FairSaleTemplate",
  "sourceName": "contracts/templates/FairSaleTemplate.sol",
  "abi": [
    {
      "inputs": [],
      "stateMutability": "nonpayable",
      "type": "constructor"
    },
    {
      "anonymous": false,
      "inputs": [
        {
          "indexed": false,
          "internalType": "address",
          "name": "tokenOut",
          "type": "address"
        },
        {
          "indexed": false,
          "internalType": "address",
          "name": "tokenIn",
          "type": "address"
        },
        {
          "indexed": false,
          "internalType": "uint256",
          "name": "duration",
          "type": "uint256"
        },
        {
          "indexed": false,
          "internalType": "uint256",
          "name": "tokenOutSupply",
          "type": "uint256"
        },
        {
          "indexed": false,
          "internalType": "uint96",
          "name": "minPrice",
          "type": "uint96"
        },
        {
          "indexed": false,
          "internalType": "uint96",
          "name": "minBuyAmount",
          "type": "uint96"
        },
        {
          "indexed": false,
          "internalType": "uint256",
          "name": "minRaise",
          "type": "uint256"
        }
      ],
      "name": "TemplateInitialized",
      "type": "event"
    },
    {
      "inputs": [],
      "name": "auction",
      "outputs": [
        {
          "internalType": "contract IAuction",
          "name": "",
          "type": "address"
        }
      ],
      "stateMutability": "view",
      "type": "function"
    },
    {
      "inputs": [],
      "name": "auctionTemplateId",
      "outputs": [
        {
          "internalType": "uint256",
          "name": "",
          "type": "uint256"
        }
      ],
      "stateMutability": "view",
      "type": "function"
    },
    {
      "inputs": [],
      "name": "createSale",
      "outputs": [
        {
          "internalType": "address",
          "name": "newSale",
          "type": "address"
        }
      ],
      "stateMutability": "payable",
      "type": "function"
    },
    {
      "inputs": [
        {
          "internalType": "bytes",
          "name": "_data",
          "type": "bytes"
        }
      ],
      "name": "init",
      "outputs": [
        {
          "internalType": "address",
          "name": "",
          "type": "address"
        }
      ],
      "stateMutability": "nonpayable",
      "type": "function"
    },
    {
      "inputs": [],
      "name": "mesaFactory",
      "outputs": [
        {
          "internalType": "contract IMesaFactory",
          "name": "",
          "type": "address"
        }
      ],
      "stateMutability": "view",
      "type": "function"
    },
    {
      "inputs": [],
      "name": "saleLauncher",
      "outputs": [
        {
          "internalType": "contract ISaleLauncher",
          "name": "",
          "type": "address"
        }
      ],
      "stateMutability": "view",
      "type": "function"
    },
    {
      "inputs": [],
      "name": "templateName",
      "outputs": [
        {
          "internalType": "string",
          "name": "",
          "type": "string"
        }
      ],
      "stateMutability": "view",
      "type": "function"
    }
  ],
  "bytecode": "0x60806040526004805460ff1916905534801561001a57600080fd5b506107bc8061002a6000396000f3fe6080604052600436106100705760003560e01c80636c2eefe11161004e5780636c2eefe1146101ad5780637d9f6db5146101d4578063906652be146101e9578063c3a4de14146101f157610070565b80634ddf47d41461007557806369708c691461010e57806369f30fd114610123575b600080fd5b34801561008157600080fd5b506100f26004803603602081101561009857600080fd5b8101906020810181356401000000008111156100b357600080fd5b8201836020820111156100c557600080fd5b803590602001918460018302840111640100000000831117156100e757600080fd5b509092509050610206565b604080516001600160a01b039092168252519081900360200190f35b34801561011a57600080fd5b506100f26102ac565b34801561012f57600080fd5b506101386102bb565b6040805160208082528351818301528351919283929083019185019080838360005b8381101561017257818101518382015260200161015a565b50505050905090810190601f16801561019f5780820380516001836020036101000a031916815260200191505b509250505060405180910390f35b3480156101b957600080fd5b506101c26102e7565b60408051918252519081900360200190f35b3480156101e057600080fd5b506100f26102ed565b6100f26102fc565b3480156101fd57600080fd5b506100f2610497565b60008060008060008060008060008060008c8c61014081101561022857600080fd5b506001600160a01b03813581169b5060208201359a506040820135811699506060820135811698506080820135975060a082013596506001600160601b0360c08301358116965060e083013516945061010082013593506101209091013516905061029b8a8a8a8a8a8a8a8a8a8a6104a6565b9d9c50505050505050505050505050565b6001546001600160a01b031681565b6040518060400160405280601081526020016f4661697253616c6554656d706c61746560801b81525081565b60035481565b6000546001600160a01b031681565b60045460009061010090046001600160a01b03163314610363576040805162461bcd60e51b815260206004820152601b60248201527f4661697253616c6554656d706c6174653a20464f5242494444454e0000000000604482015290519081900360640190fd5b600180546003546005546006546004805460405163da550d8960e01b81529182018581526001600160a01b0394851660248401819052604484018590526101009283900486166064850181905260a0608486019081526007805460029c811615909602600019019095169a909a0460a48601819052969098169863da550d89983498979296959094939260c490910190849080156104425780601f1061041757610100808354040283529160200191610442565b820191906000526020600020905b81548152906001019060200180831161042557829003601f168201915b505096505050505050506020604051808303818588803b15801561046557600080fd5b505af1158015610479573d6000803e3d6000fd5b50505050506040513d602081101561049057600080fd5b5051919050565b6002546001600160a01b031681565b60045460009060ff16156104eb5760405162461bcd60e51b81526004018080602001828103825260248152602001806107636024913960400191505060405180910390fd5b600180546001600160a01b0319166001600160a01b038d169081179091556040805163c45a015560e01b8152905163c45a015591600480820192602092909190829003018186803b15801561053f57600080fd5b505afa158015610553573d6000803e3d6000fd5b505050506040513d602081101561056957600080fd5b5051600280546001600160a01b039283166001600160a01b03199182161790915560038c905560048054858416610100908102610100600160a81b031990921691909117909155600580548d8516931683179055600689905560408051938c1660208581019190915284820193909352606460608501819052608085018c90526001600160601b03808c1660a0870152891660c086015260e0850181905291840187905260006101208086018290528251808703909101815261014090950190915283519193849391926106419260079201906106cf565b506004805460ff19166001179055604080516001600160a01b03808f1682528d1660208201528082018c9052606081018b90526001600160601b03808b166080830152891660a082015260c0810188905290517ff243c2358fe9c4fb273fbfd3caa64e7f6b8c49b8100281f1a904bc13f475161f9181900360e00190a15050509a9950505050505050505050565b828054600181600116156101000203166002900490600052602060002090601f016020900481019282601f1061071057805160ff191683800117855561073d565b8280016001018555821561073d579182015b8281111561073d578251825591602001919060010190610722565b5061074992915061074d565b5090565b5b80821115610749576000815560010161074e56fe4661697253616c6554656d706c6174653a20414c454144595f494e495449414c495a4544a2646970667358221220915ece4eb6cb2f9f602f67b4aa63bd0ff39e5b98aeba03de3eba59702655921564736f6c634300060c0033",
  "linkReferences": {},
  "deployedLinkReferences": {}
}