{
  "_format": "hh-sol-artifact-1",
  "contractName": "FairSaleTemplate",
  "sourceName": "contracts/templates/FairSaleTemplate.sol",
  "abi": [
    {
      "inputs": [],
      "stateMutability": "nonpayable",
      "type": "constructor"
    },
    {
      "anonymous": false,
      "inputs": [
        {
          "indexed": false,
          "internalType": "address",
          "name": "tokenOut",
          "type": "address"
        },
        {
          "indexed": false,
          "internalType": "address",
          "name": "tokenIn",
          "type": "address"
        },
        {
          "indexed": false,
          "internalType": "uint256",
          "name": "duration",
          "type": "uint256"
        },
        {
          "indexed": false,
          "internalType": "uint256",
          "name": "tokenOutSupply",
          "type": "uint256"
        },
        {
          "indexed": false,
          "internalType": "uint96",
          "name": "minPrice",
          "type": "uint96"
        },
        {
          "indexed": false,
          "internalType": "uint96",
          "name": "minBuyAmount",
          "type": "uint96"
        },
        {
          "indexed": false,
          "internalType": "uint256",
          "name": "minRaise",
          "type": "uint256"
        }
      ],
      "name": "TemplateInitialized",
      "type": "event"
    },
    {
      "inputs": [],
      "name": "createSale",
      "outputs": [
        {
          "internalType": "address",
          "name": "newSale",
          "type": "address"
        }
      ],
      "stateMutability": "payable",
      "type": "function"
    },
    {
      "inputs": [
        {
          "internalType": "bytes",
          "name": "_data",
          "type": "bytes"
        }
      ],
      "name": "init",
      "outputs": [],
      "stateMutability": "nonpayable",
      "type": "function"
    },
    {
      "inputs": [],
      "name": "mesaFactory",
      "outputs": [
        {
          "internalType": "contract IMesaFactory",
          "name": "",
          "type": "address"
        }
      ],
      "stateMutability": "view",
      "type": "function"
    },
    {
      "inputs": [],
      "name": "saleLauncher",
      "outputs": [
        {
          "internalType": "contract ISaleLauncher",
          "name": "",
          "type": "address"
        }
      ],
      "stateMutability": "view",
      "type": "function"
    },
    {
      "inputs": [],
      "name": "saleTemplateId",
      "outputs": [
        {
          "internalType": "uint256",
          "name": "",
          "type": "uint256"
        }
      ],
      "stateMutability": "view",
      "type": "function"
    },
    {
      "inputs": [],
      "name": "templateName",
      "outputs": [
        {
          "internalType": "string",
          "name": "",
          "type": "string"
        }
      ],
      "stateMutability": "view",
      "type": "function"
    },
    {
      "inputs": [],
      "name": "tokenOut",
      "outputs": [
        {
          "internalType": "address",
          "name": "",
          "type": "address"
        }
      ],
      "stateMutability": "view",
      "type": "function"
    },
    {
      "inputs": [],
      "name": "tokenOutSupply",
      "outputs": [
        {
          "internalType": "uint256",
          "name": "",
          "type": "uint256"
        }
      ],
      "stateMutability": "view",
      "type": "function"
    },
    {
      "inputs": [],
      "name": "tokenSupplier",
      "outputs": [
        {
          "internalType": "address",
          "name": "",
          "type": "address"
        }
      ],
      "stateMutability": "view",
      "type": "function"
    }
  ],
  "bytecode": "0x60806040526003805460ff1916905534801561001a57600080fd5b5061080e8061002a6000396000f3fe6080604052600436106100865760003560e01c806369f30fd11161005957806369f30fd114610177578063906652be14610201578063c3a4de1414610209578063d0202d3b1461021e578063f569720d1461023357610086565b80634ddf47d41461008b578063613bb30b1461010a57806364ff4a151461013157806369708c6914610146575b600080fd5b34801561009757600080fd5b50610108600480360360208110156100ae57600080fd5b8101906020810181356401000000008111156100c957600080fd5b8201836020820111156100db57600080fd5b803590602001918460018302840111640100000000831117156100fd57600080fd5b509092509050610248565b005b34801561011657600080fd5b5061011f6102e9565b60408051918252519081900360200190f35b34801561013d57600080fd5b5061011f6102ef565b34801561015257600080fd5b5061015b6102f5565b604080516001600160a01b039092168252519081900360200190f35b34801561018357600080fd5b5061018c610304565b6040805160208082528351818301528351919283929083019185019080838360005b838110156101c65781810151838201526020016101ae565b50505050905090810190601f1680156101f35780820380516001836020036101000a031916815260200191505b509250505060405180910390f35b61015b610330565b34801561021557600080fd5b5061015b6104cb565b34801561022a57600080fd5b5061015b6104da565b34801561023f57600080fd5b5061015b6104e9565b6000806000806000806000806000808b8b61014081101561026857600080fd5b506001600160a01b03813581169b5060208201359a506040820135811699506060820135811698506080820135975060a082013596506001600160601b0360c08301358116965060e08301351694506101008201359350610120909101351690506102db8a8a8a8a8a8a8a8a8a8a6104fd565b505050505050505050505050565b60025481565b60055481565b6000546001600160a01b031681565b6040518060400160405280601081526020016f4661697253616c6554656d706c61746560801b81525081565b60035460009061010090046001600160a01b03163314610397576040805162461bcd60e51b815260206004820152601b60248201527f4661697253616c6554656d706c6174653a20464f5242494444454e0000000000604482015290519081900360640190fd5b600054600280546004805460055460035460405163da550d8960e01b81529384018581526001600160a01b0393841660248601819052604486018490526101009283900485166064870181905260a060848801908152600680546001811615909602600019019095169990990460a48801819052959099169863da550d8998349897929691949392909160c490910190849080156104765780601f1061044b57610100808354040283529160200191610476565b820191906000526020600020905b81548152906001019060200180831161045957829003601f168201915b505096505050505050506020604051808303818588803b15801561049957600080fd5b505af11580156104ad573d6000803e3d6000fd5b50505050506040513d60208110156104c457600080fd5b5051919050565b6001546001600160a01b031681565b6004546001600160a01b031681565b60035461010090046001600160a01b031681565b60035460ff161561053f5760405162461bcd60e51b81526004018080602001828103825260248152602001806107b56024913960400191505060405180910390fd5b600080546001600160a01b0319166001600160a01b038c169081179091556040805163c45a015560e01b8152905163c45a015591600480820192602092909190829003018186803b15801561059357600080fd5b505afa1580156105a7573d6000803e3d6000fd5b505050506040513d60208110156105bd57600080fd5b5051600180546001600160a01b039283166001600160a01b03199182161790915560028b905560038054848416610100908102610100600160a81b031990921691909117909155600480548c8516931683179055600588905560408051938b1660208581019190915284820193909352606460608501819052608085018b90526001600160601b03808b1660a0870152881660c086015260e085018190529184018690526000610120808601829052825180870390910181526101409095019091528351919384939192610695926006920190610721565b506003805460ff19166001179055604080516001600160a01b03808e1682528c1660208201528082018b9052606081018a90526001600160601b03808a166080830152881660a082015260c0810187905290517ff243c2358fe9c4fb273fbfd3caa64e7f6b8c49b8100281f1a904bc13f475161f9181900360e00190a150505050505050505050505050565b828054600181600116156101000203166002900490600052602060002090601f016020900481019282601f1061076257805160ff191683800117855561078f565b8280016001018555821561078f579182015b8281111561078f578251825591602001919060010190610774565b5061079b92915061079f565b5090565b5b8082111561079b57600081556001016107a056fe4661697253616c6554656d706c6174653a20414c454144595f494e495449414c495a4544a26469706673582212205159b6ef60bb4dfc3fd3df2d80cf428096b50f13b53691eba90273a2d14cabbc64736f6c634300060c0033",
  "linkReferences": {},
  "deployedLinkReferences": {}
}