{
  "_format": "hh-sol-artifact-1",
  "contractName": "SaleLauncher",
  "sourceName": "contracts/sales/SaleLauncher.sol",
  "abi": [
    {
      "inputs": [
        {
          "internalType": "address",
          "name": "_factory",
          "type": "address"
        }
      ],
      "stateMutability": "nonpayable",
      "type": "constructor"
    },
    {
      "anonymous": false,
      "inputs": [
        {
          "indexed": true,
          "internalType": "address",
          "name": "sale",
          "type": "address"
        },
        {
          "indexed": false,
          "internalType": "uint256",
          "name": "templateId",
          "type": "uint256"
        },
        {
          "indexed": false,
          "internalType": "bytes",
          "name": "data",
          "type": "bytes"
        }
      ],
      "name": "SaleInitialized",
      "type": "event"
    },
    {
      "anonymous": false,
      "inputs": [
        {
          "indexed": true,
          "internalType": "address",
          "name": "sale",
          "type": "address"
        },
        {
          "indexed": false,
          "internalType": "uint256",
          "name": "templateId",
          "type": "uint256"
        }
      ],
      "name": "SaleLaunched",
      "type": "event"
    },
    {
      "anonymous": false,
      "inputs": [
        {
          "indexed": true,
          "internalType": "address",
          "name": "template",
          "type": "address"
        },
        {
          "indexed": false,
          "internalType": "uint256",
          "name": "templateId",
          "type": "uint256"
        }
      ],
      "name": "TemplateAdded",
      "type": "event"
    },
    {
      "anonymous": false,
      "inputs": [
        {
          "indexed": true,
          "internalType": "address",
          "name": "template",
          "type": "address"
        },
        {
          "indexed": false,
          "internalType": "uint256",
          "name": "templateId",
          "type": "uint256"
        }
      ],
      "name": "TemplateRemoved",
      "type": "event"
    },
    {
      "inputs": [
        {
          "internalType": "address",
          "name": "_template",
          "type": "address"
        }
      ],
      "name": "addTemplate",
      "outputs": [
        {
          "internalType": "uint256",
          "name": "",
          "type": "uint256"
        }
      ],
      "stateMutability": "nonpayable",
      "type": "function"
    },
    {
      "inputs": [
        {
          "internalType": "uint256",
          "name": "_templateId",
          "type": "uint256"
        },
        {
          "internalType": "address",
          "name": "_token",
          "type": "address"
        },
        {
          "internalType": "uint256",
          "name": "_tokenSupply",
          "type": "uint256"
        },
        {
          "internalType": "bytes",
          "name": "_data",
          "type": "bytes"
        }
      ],
      "name": "createSale",
      "outputs": [
        {
          "internalType": "address",
          "name": "newSale",
          "type": "address"
        }
      ],
      "stateMutability": "payable",
      "type": "function"
    },
    {
      "inputs": [],
      "name": "factory",
      "outputs": [
        {
          "internalType": "address",
          "name": "",
          "type": "address"
        }
      ],
      "stateMutability": "view",
      "type": "function"
    },
    {
      "inputs": [
        {
          "internalType": "uint256",
          "name": "_tokenSupply",
          "type": "uint256"
        }
      ],
      "name": "getDepositAmountWithFees",
      "outputs": [
        {
          "internalType": "uint256",
          "name": "",
          "type": "uint256"
        }
      ],
      "stateMutability": "view",
      "type": "function"
    },
    {
      "inputs": [
        {
          "internalType": "uint256",
          "name": "_templateId",
          "type": "uint256"
        }
      ],
      "name": "getTemplate",
      "outputs": [
        {
          "internalType": "address",
          "name": "template",
          "type": "address"
        }
      ],
      "stateMutability": "view",
      "type": "function"
    },
    {
      "inputs": [
        {
          "internalType": "address",
          "name": "_template",
          "type": "address"
        }
      ],
      "name": "getTemplateId",
      "outputs": [
        {
          "internalType": "uint256",
          "name": "",
          "type": "uint256"
        }
      ],
      "stateMutability": "view",
      "type": "function"
    },
    {
      "inputs": [],
      "name": "numberOfSales",
      "outputs": [
        {
          "internalType": "uint256",
          "name": "",
          "type": "uint256"
        }
      ],
      "stateMutability": "view",
      "type": "function"
    },
    {
      "inputs": [
        {
          "internalType": "uint256",
          "name": "_templateId",
          "type": "uint256"
        }
      ],
      "name": "removeTemplate",
      "outputs": [],
      "stateMutability": "nonpayable",
      "type": "function"
    },
    {
      "inputs": [
        {
          "internalType": "address",
          "name": "",
          "type": "address"
        }
      ],
      "name": "saleInfo",
      "outputs": [
        {
          "internalType": "bool",
          "name": "exists",
          "type": "bool"
        },
        {
          "internalType": "uint64",
          "name": "templateId",
          "type": "uint64"
        },
        {
          "internalType": "uint128",
          "name": "index",
          "type": "uint128"
        }
      ],
      "stateMutability": "view",
      "type": "function"
    },
    {
      "inputs": [],
      "name": "saleTemplateId",
      "outputs": [
        {
          "internalType": "uint256",
          "name": "",
          "type": "uint256"
        }
      ],
      "stateMutability": "view",
      "type": "function"
    },
    {
      "inputs": [
        {
          "internalType": "uint256",
          "name": "",
          "type": "uint256"
        }
      ],
      "name": "sales",
      "outputs": [
        {
          "internalType": "address",
          "name": "",
          "type": "address"
        }
      ],
      "stateMutability": "view",
      "type": "function"
    }
  ],
  "bytecode": "0x608060405234801561001057600080fd5b506040516113783803806113788339818101604052602081101561003357600080fd5b5051600580546001600160a01b0319166001600160a01b03909216919091179055611315806100636000396000f3fe60806040526004361061009c5760003560e01c8063b5f522f711610064578063b5f522f7146101e2578063c04d0ab71461020c578063c45a015514610238578063d335ebda1461024d578063d7b0b29d14610280578063e8c51ccc146102e55761009c565b806321745c15146100a157806331543cf4146100c857806355b302661461010e578063613bb30b146101415780637e0c133f14610156575b600080fd5b3480156100ad57600080fd5b506100b661030f565b60408051918252519081900360200190f35b3480156100d457600080fd5b506100f2600480360360208110156100eb57600080fd5b5035610315565b604080516001600160a01b039092168252519081900360200190f35b34801561011a57600080fd5b506100b66004803603602081101561013157600080fd5b50356001600160a01b0316610330565b34801561014d57600080fd5b506100b66104e0565b6100f26004803603608081101561016c57600080fd5b8135916001600160a01b0360208201351691604082013591908101906080810160608201356401000000008111156101a357600080fd5b8201836020820111156101b557600080fd5b803590602001918460018302840111640100000000831117156101d757600080fd5b5090925090506104e6565b3480156101ee57600080fd5b506100f26004803603602081101561020557600080fd5b503561083e565b34801561021857600080fd5b506102366004803603602081101561022f57600080fd5b5035610865565b005b34801561024457600080fd5b506100f26109c3565b34801561025957600080fd5b506100b66004803603602081101561027057600080fd5b50356001600160a01b03166109d2565b34801561028c57600080fd5b506102b3600480360360208110156102a357600080fd5b50356001600160a01b03166109ed565b60408051931515845267ffffffffffffffff90921660208401526001600160801b031682820152519081900360600190f35b3480156102f157600080fd5b506100b66004803603602081101561030857600080fd5b5035610a24565b60005490565b6000908152600260205260409020546001600160a01b031690565b60055460408051636a619f9560e11b815290516000926001600160a01b03169163d4c33f2a916004808301926020929190829003018186803b15801561037557600080fd5b505afa158015610389573d6000803e3d6000fd5b505050506040513d602081101561039f57600080fd5b50516001600160a01b031633146103f7576040805162461bcd60e51b815260206004820152601760248201527629b0b632a630bab731b432b91d102327a92124a22222a760491b604482015290519081900360640190fd5b6001600160a01b03821660009081526003602052604090205415610462576040805162461bcd60e51b815260206004820181905260248201527f53616c654c61756e636865723a2054454d504c4154455f4455504c4943415445604482015290519081900360640190fd5b600180548101808255600090815260026020908152604080832080546001600160a01b0319166001600160a01b038816908117909155935484845260038352928190208390558051928352517f70300ab95e22eebeda3bb99011e4ddcd4e3012b97e60bf47c6f4d547dbb8d47a9281900390910190a2505060015490565b60015481565b6005546040805163178021e360e01b815290516000926001600160a01b03169163178021e3916004808301926020929190829003018186803b15801561052b57600080fd5b505afa15801561053f573d6000803e3d6000fd5b505050506040513d602081101561055557600080fd5b50513410156105955760405162461bcd60e51b81526004018080602001828103825260238152602001806112786023913960400191505060405180910390fd5b6000868152600260205260409020546001600160a01b03166105fe576040805162461bcd60e51b815260206004820152601e60248201527f53616c654c61756e636865723a20494e56414c49445f54454d504c4154450000604482015290519081900360640190fd5b61060786610b3a565b905083156107c35760055460408051630c0586bf60e11b815290516000926001600160a01b03169163180b0d7e916004808301926020929190829003018186803b15801561065457600080fd5b505afa158015610668573d6000803e3d6000fd5b505050506040513d602081101561067e57600080fd5b505160055460408051637436f52560e11b815290519293506000926001600160a01b039092169163e86dea4a91600480820192602092909190829003018186803b1580156106cb57600080fd5b505afa1580156106df573d6000803e3d6000fd5b505050506040513d60208110156106f557600080fd5b5051905060006107198361071361070c8286610c7b565b8a90610cde565b90610d37565b905061072788333084610d9e565b610732888589610efb565b6107bf88600560009054906101000a90046001600160a01b03166001600160a01b031663017e7e586040518163ffffffff1660e01b815260040160206040518083038186803b15801561078457600080fd5b505afa158015610798573d6000803e3d6000fd5b505050506040513d60208110156107ae57600080fd5b50516107ba848b611065565b6110c2565b5050505b806001600160a01b03167fafeb986e8dbab70144fda7a9f44574cc76c82d5b3f7d1ec7740e0990ba7ff81f87858560405180848152602001806020018281038252848482818152602001925080828437600083820152604051601f909101601f1916909201829003965090945050505050a295945050505050565b6000818154811061084b57fe5b6000918252602090912001546001600160a01b0316905081565b600560009054906101000a90046001600160a01b03166001600160a01b031663d4c33f2a6040518163ffffffff1660e01b815260040160206040518083038186803b1580156108b357600080fd5b505afa1580156108c7573d6000803e3d6000fd5b505050506040513d60208110156108dd57600080fd5b50516001600160a01b03163314610935576040805162461bcd60e51b815260206004820152601760248201527629b0b632a630bab731b432b91d102327a92124a22222a760491b604482015290519081900360640190fd5b6000818152600260205260409020546001600160a01b031661095657600080fd5b600081815260026020908152604080832080546001600160a01b031981169091556001600160a01b031680845260038352818420939093558051848152905183927f1891c760fe30a9bb6dc65c4f84a54ab625073606e21e0c4d81b1ea63582aa938928290030190a25050565b6005546001600160a01b031681565b6001600160a01b031660009081526003602052604090205490565b60046020526000908152604090205460ff811690610100810467ffffffffffffffff1690600160481b90046001600160801b031683565b600080600560009054906101000a90046001600160a01b03166001600160a01b031663180b0d7e6040518163ffffffff1660e01b815260040160206040518083038186803b158015610a7557600080fd5b505afa158015610a89573d6000803e3d6000fd5b505050506040513d6020811015610a9f57600080fd5b505160055460408051637436f52560e11b815290519293506000926001600160a01b039092169163e86dea4a91600480820192602092909190829003018186803b158015610aec57600080fd5b505afa158015610b00573d6000803e3d6000fd5b505050506040513d6020811015610b1657600080fd5b50519050610b3282610713610b2b8285610c7b565b8790610cde565b949350505050565b600081815260026020526040812054610b5b906001600160a01b0316611225565b60408051606081018252600180825267ffffffffffffffff8681166020808501918252600080546001600160801b039081168789019081526001600160a01b038a1680845260048552898420985189549651925160ff199097169015151768ffffffffffffffff00191661010092909716919091029590951778ffffffffffffffffffffffffffffffff0000000000000000001916600160481b9490911693909302929092179094558054928301815580527f290decd9548b62a8d60345a988386fc84ba6bc95484008f6362f93160ef3e56390910180546001600160a01b0319168217905582518681529251939450927f5df7ea887dad4f348065dc199aa9a6e398f520855c5f356a079194872bf3d85e9281900390910190a2919050565b600082820183811015610cd5576040805162461bcd60e51b815260206004820152601b60248201527f536166654d6174683a206164646974696f6e206f766572666c6f770000000000604482015290519081900360640190fd5b90505b92915050565b600082610ced57506000610cd8565b82820282848281610cfa57fe5b0414610cd55760405162461bcd60e51b815260040180806020018281038252602181526020018061129b6021913960400191505060405180910390fd5b6000808211610d8d576040805162461bcd60e51b815260206004820152601a60248201527f536166654d6174683a206469766973696f6e206279207a65726f000000000000604482015290519081900360640190fd5b818381610d9657fe5b049392505050565b604080516001600160a01b0385811660248301528481166044830152606480830185905283518084039091018152608490920183526020820180516001600160e01b03166323b872dd60e01b17815292518251600094606094938a169392918291908083835b60208310610e235780518252601f199092019160209182019101610e04565b6001836020036101000a0380198251168184511680821785525050505050509050019150506000604051808303816000865af19150503d8060008114610e85576040519150601f19603f3d011682016040523d82523d6000602084013e610e8a565b606091505b5091509150818015610eb8575080511580610eb85750808060200190516020811015610eb557600080fd5b50515b610ef35760405162461bcd60e51b81526004018080602001828103825260248152602001806112bc6024913960400191505060405180910390fd5b505050505050565b604080516001600160a01b038481166024830152604480830185905283518084039091018152606490920183526020820180516001600160e01b031663095ea7b360e01b178152925182516000946060949389169392918291908083835b60208310610f785780518252601f199092019160209182019101610f59565b6001836020036101000a0380198251168184511680821785525050505050509050019150506000604051808303816000865af19150503d8060008114610fda576040519150601f19603f3d011682016040523d82523d6000602084013e610fdf565b606091505b509150915081801561100d57508051158061100d575080806020019051602081101561100a57600080fd5b50515b61105e576040805162461bcd60e51b815260206004820152601e60248201527f5472616e7366657248656c7065723a20415050524f56455f4641494c45440000604482015290519081900360640190fd5b5050505050565b6000828211156110bc576040805162461bcd60e51b815260206004820152601e60248201527f536166654d6174683a207375627472616374696f6e206f766572666c6f770000604482015290519081900360640190fd5b50900390565b604080516001600160a01b038481166024830152604480830185905283518084039091018152606490920183526020820180516001600160e01b031663a9059cbb60e01b178152925182516000946060949389169392918291908083835b6020831061113f5780518252601f199092019160209182019101611120565b6001836020036101000a0380198251168184511680821785525050505050509050019150506000604051808303816000865af19150503d80600081146111a1576040519150601f19603f3d011682016040523d82523d6000602084013e6111a6565b606091505b50915091508180156111d45750805115806111d457508080602001905160208110156111d157600080fd5b50515b61105e576040805162461bcd60e51b815260206004820152601f60248201527f5472616e7366657248656c7065723a205452414e534645525f4641494c454400604482015290519081900360640190fd5b6000808260601b9050604051733d602d80600a3d3981f3363d3d373d3d3d363d7360601b81528160148201526e5af43d82803e903d91602b57fd5bf360881b60288201526037816000f094935050505056fe53616c654c61756e636865723a2053414c455f4645455f4e4f545f50524f5649444544536166654d6174683a206d756c7469706c69636174696f6e206f766572666c6f775472616e7366657248656c7065723a205452414e534645525f46524f4d5f4641494c4544a2646970667358221220fb58b3f4fcf3524beeb8ac1e8769da48260cc799eaded5ed3c69bba6ebebb11064736f6c634300060c0033",
  "linkReferences": {},
  "deployedLinkReferences": {}
}