{
  "_format": "hh-sol-artifact-1",
  "contractName": "TemplateLauncher",
  "sourceName": "contracts/templates/TemplateLauncher.sol",
  "abi": [
    {
      "inputs": [
        {
          "internalType": "address",
          "name": "_factory",
          "type": "address"
        }
      ],
      "stateMutability": "nonpayable",
      "type": "constructor"
    },
    {
      "anonymous": false,
      "inputs": [
        {
          "indexed": true,
          "internalType": "address",
          "name": "template",
          "type": "address"
        },
        {
          "indexed": false,
          "internalType": "uint256",
          "name": "templateId",
          "type": "uint256"
        }
      ],
      "name": "TemplateAdded",
      "type": "event"
    },
    {
      "anonymous": false,
      "inputs": [
        {
          "indexed": true,
          "internalType": "address",
          "name": "sale",
          "type": "address"
        },
        {
          "indexed": false,
          "internalType": "uint256",
          "name": "templateId",
          "type": "uint256"
        }
      ],
      "name": "TemplateLaunched",
      "type": "event"
    },
    {
      "anonymous": false,
      "inputs": [
        {
          "indexed": true,
          "internalType": "address",
          "name": "template",
          "type": "address"
        },
        {
          "indexed": false,
          "internalType": "uint256",
          "name": "templateId",
          "type": "uint256"
        }
      ],
      "name": "TemplateRemoved",
      "type": "event"
    },
    {
      "anonymous": false,
      "inputs": [
        {
          "indexed": true,
          "internalType": "address",
          "name": "template",
          "type": "address"
        },
        {
          "indexed": false,
          "internalType": "uint256",
          "name": "templateId",
          "type": "uint256"
        }
      ],
      "name": "TemplateVerified",
      "type": "event"
    },
    {
      "anonymous": false,
      "inputs": [
        {
          "indexed": false,
          "internalType": "bool",
          "name": "restrictedTemplates",
          "type": "bool"
        }
      ],
      "name": "UpdatedTemplateRestriction",
      "type": "event"
    },
    {
      "inputs": [
        {
          "internalType": "address",
          "name": "_template",
          "type": "address"
        }
      ],
      "name": "addTemplate",
      "outputs": [
        {
          "internalType": "uint256",
          "name": "",
          "type": "uint256"
        }
      ],
      "stateMutability": "payable",
      "type": "function"
    },
    {
      "inputs": [],
      "name": "factory",
      "outputs": [
        {
          "internalType": "address",
          "name": "",
          "type": "address"
        }
      ],
      "stateMutability": "view",
      "type": "function"
    },
    {
      "inputs": [
        {
          "internalType": "uint256",
          "name": "_templateId",
          "type": "uint256"
        }
      ],
      "name": "getTemplate",
      "outputs": [
        {
          "internalType": "address",
          "name": "template",
          "type": "address"
        }
      ],
      "stateMutability": "view",
      "type": "function"
    },
    {
      "inputs": [
        {
          "internalType": "address",
          "name": "_template",
          "type": "address"
        }
      ],
      "name": "getTemplateId",
      "outputs": [
        {
          "internalType": "uint256",
          "name": "",
          "type": "uint256"
        }
      ],
      "stateMutability": "view",
      "type": "function"
    },
    {
      "inputs": [
        {
          "internalType": "uint256",
          "name": "_templateId",
          "type": "uint256"
        },
        {
          "internalType": "bytes",
          "name": "_data",
          "type": "bytes"
        }
      ],
      "name": "launchTemplate",
      "outputs": [
        {
          "internalType": "address",
          "name": "newAuction",
          "type": "address"
        }
      ],
      "stateMutability": "payable",
      "type": "function"
    },
    {
      "inputs": [
        {
          "internalType": "uint256",
          "name": "_templateId",
          "type": "uint256"
        }
      ],
      "name": "removeTemplate",
      "outputs": [],
      "stateMutability": "nonpayable",
      "type": "function"
    },
    {
      "inputs": [],
      "name": "restrictedTemplates",
      "outputs": [
        {
          "internalType": "bool",
          "name": "",
          "type": "bool"
        }
      ],
      "stateMutability": "view",
      "type": "function"
    },
    {
      "inputs": [],
      "name": "templateId",
      "outputs": [
        {
          "internalType": "uint256",
          "name": "",
          "type": "uint256"
        }
      ],
      "stateMutability": "view",
      "type": "function"
    },
    {
      "inputs": [
        {
          "internalType": "address",
          "name": "",
          "type": "address"
        }
      ],
      "name": "templateInfo",
      "outputs": [
        {
          "internalType": "bool",
          "name": "exists",
          "type": "bool"
        },
        {
          "internalType": "uint64",
          "name": "templateId",
          "type": "uint64"
        },
        {
          "internalType": "uint128",
          "name": "index",
          "type": "uint128"
        },
        {
          "internalType": "bool",
          "name": "verified",
          "type": "bool"
        }
      ],
      "stateMutability": "view",
      "type": "function"
    },
    {
      "inputs": [
        {
          "internalType": "bool",
          "name": "_restrictedTemplates",
          "type": "bool"
        }
      ],
      "name": "updateTemplateRestriction",
      "outputs": [],
      "stateMutability": "nonpayable",
      "type": "function"
    },
    {
      "inputs": [
        {
          "internalType": "uint256",
          "name": "_templateId",
          "type": "uint256"
        }
      ],
      "name": "verifyTemplate",
      "outputs": [],
      "stateMutability": "nonpayable",
      "type": "function"
    }
  ],
  "bytecode": "0x60806040526004805460ff60a01b1916600160a01b17905534801561002357600080fd5b50604051610cfe380380610cfe8339818101604052602081101561004657600080fd5b5051600480546001600160a01b0319166001600160a01b03909216919091179055610c88806100766000396000f3fe60806040526004361061009c5760003560e01c80636f71d735116100645780636f71d735146101ee5780637aa77f291461025c578063a6fc151814610271578063c04d0ab71461029a578063c45a0155146102c4578063d335ebda146102d95761009c565b80632581cf9c146100a157806331543cf4146100cf57806333333f611461011557806341a7ab1b1461013f57806355b30266146101b6575b600080fd5b3480156100ad57600080fd5b506100cd600480360360208110156100c457600080fd5b5035151561030c565b005b3480156100db57600080fd5b506100f9600480360360208110156100f257600080fd5b5035610417565b604080516001600160a01b039092168252519081900360200190f35b34801561012157600080fd5b506100cd6004803603602081101561013857600080fd5b5035610432565b6100f96004803603604081101561015557600080fd5b8135919081019060408101602082013564010000000081111561017757600080fd5b82018360208201111561018957600080fd5b803590602001918460018302840111640100000000831117156101ab57600080fd5b509092509050610562565b6101dc600480360360208110156101cc57600080fd5b50356001600160a01b03166106c2565b60408051918252519081900360200190f35b3480156101fa57600080fd5b506102216004803603602081101561021157600080fd5b50356001600160a01b0316610911565b60408051941515855267ffffffffffffffff90931660208501526001600160801b039091168383015215156060830152519081900360800190f35b34801561026857600080fd5b506101dc610958565b34801561027d57600080fd5b5061028661095e565b604080519115158252519081900360200190f35b3480156102a657600080fd5b506100cd600480360360208110156102bd57600080fd5b503561096e565b3480156102d057600080fd5b506100f9610ab4565b3480156102e557600080fd5b506101dc600480360360208110156102fc57600080fd5b50356001600160a01b0316610ac3565b6004805460408051636a619f9560e11b815290516001600160a01b039092169263d4c33f2a928282019260209290829003018186803b15801561034e57600080fd5b505afa158015610362573d6000803e3d6000fd5b505050506040513d602081101561037857600080fd5b50516001600160a01b031633146103c4576040805162461bcd60e51b815260206004820152601b6024820152600080516020610bc3833981519152604482015290519081900360640190fd5b60048054821515600160a01b810260ff60a01b199092169190911790915560408051918252517fa2c63e5410942c4b3b90442572fe217964d5b9d50bdb4c92b5538425cb0864399181900360200190a150565b6000908152600160205260409020546001600160a01b031690565b6004805460408051636a619f9560e11b815290516001600160a01b039092169263d4c33f2a928282019260209290829003018186803b15801561047457600080fd5b505afa158015610488573d6000803e3d6000fd5b505050506040513d602081101561049e57600080fd5b50516001600160a01b031633146104ea576040805162461bcd60e51b815260206004820152601b6024820152600080516020610bc3833981519152604482015290519081900360640190fd5b600081815260016020818152604080842080546001600160a01b03908116865260038452828620805460ff60c81b1916600160c81b179055948690529282529154825185815292519316927f79367dfe846d6f38a936c6079e3c3ac5f8024e05df27596fe98e5c70893ab31c9281900390910190a250565b6004546000906001600160a01b031633146105b2576040805162461bcd60e51b815260206004820152601b6024820152600080516020610bc3833981519152604482015290519081900360640190fd5b600480546040805163178021e360e01b815290516001600160a01b039092169263178021e3928282019260209290829003018186803b1580156105f457600080fd5b505afa158015610608573d6000803e3d6000fd5b505050506040513d602081101561061e57600080fd5b505134101561065e5760405162461bcd60e51b815260040180806020018281038252602a815260200180610be3602a913960400191505060405180910390fd5b6000848152600160205260409020546001600160a01b03166106b15760405162461bcd60e51b8152600401808060200182810382526022815260200180610c316022913960400191505060405180910390fd5b6106ba84610ade565b949350505050565b600454600090600160a01b900460ff16158061075357506004805460408051636a619f9560e11b815290516001600160a01b039092169263d4c33f2a928282019260209290829003018186803b15801561071b57600080fd5b505afa15801561072f573d6000803e3d6000fd5b505050506040513d602081101561074557600080fd5b50516001600160a01b031633145b610792576040805162461bcd60e51b815260206004820152601b6024820152600080516020610bc3833981519152604482015290519081900360640190fd5b600480546040805163407e9fd160e01b815290516001600160a01b039092169263407e9fd1928282019260209290829003018186803b1580156107d457600080fd5b505afa1580156107e8573d6000803e3d6000fd5b505050506040513d60208110156107fe57600080fd5b505134101561083e5760405162461bcd60e51b815260040180806020018281038252602b815260200180610b98602b913960400191505060405180910390fd5b6001600160a01b038216600090815260026020526040902054156108935760405162461bcd60e51b8152600401808060200182810382526024815260200180610c0d6024913960400191505060405180910390fd5b60008054600190810180835582526020908152604080832080546001600160a01b0319166001600160a01b038716908117909155835481855260028452938290208490558151938452905190927f70300ab95e22eebeda3bb99011e4ddcd4e3012b97e60bf47c6f4d547dbb8d47a92908290030190a2505060005490565b60036020526000908152604090205460ff8082169167ffffffffffffffff610100820416916001600160801b03690100000000000000000083041691600160c81b90041684565b60005481565b600454600160a01b900460ff1681565b6004805460408051636a619f9560e11b815290516001600160a01b039092169263d4c33f2a928282019260209290829003018186803b1580156109b057600080fd5b505afa1580156109c4573d6000803e3d6000fd5b505050506040513d60208110156109da57600080fd5b50516001600160a01b03163314610a26576040805162461bcd60e51b815260206004820152601b6024820152600080516020610bc3833981519152604482015290519081900360640190fd5b6000818152600160205260409020546001600160a01b0316610a4757600080fd5b600081815260016020908152604080832080546001600160a01b031981169091556001600160a01b031680845260028352818420939093558051848152905183927f1891c760fe30a9bb6dc65c4f84a54ab625073606e21e0c4d81b1ea63582aa938928290030190a25050565b6004546001600160a01b031681565b6001600160a01b031660009081526002602052604090205490565b600081815260016020526040812054610aff906001600160a01b0316610b45565b6040805184815290519192506001600160a01b038316917fb4e0c04d31936037ef6d0ff42d7e7dbea22f4842fecb0702df62c79e70d918619181900360200190a2919050565b6000808260601b9050604051733d602d80600a3d3981f3363d3d373d3d3d363d7360601b81528160148201526e5af43d82803e903d91602b57fd5bf360881b60288201526037816000f094935050505056fe54656d706c6174654c61756e636865723a2054454d504c4154455f4645455f4e4f545f50524f564944454454656d706c6174654c61756e636865723a20464f5242494444454e000000000054656d706c6174654c61756e636865723a2041554354494f4e5f4645455f4e4f545f50524f564944454454656d706c6174654c61756e636865723a2054454d504c4154455f4455504c494341544554656d706c6174654c61756e636865723a20494e56414c49445f54454d504c415445a26469706673582212207f56bf628d0322f31e8e0dfc3cbe04478a48a1a7e23b3248c6ab55e4822ea66a64736f6c634300060c0033",
  "linkReferences": {},
  "deployedLinkReferences": {}
}